:030000000200B645
:0C00B600787FE4F6D8FD75813D0200FD66
:0602F700F5A07F507EC35C
:0B02FD00EF1FAC0670011E4C70F622D3
:04033C0075A0FF2287
:1002790075A05F7F207EA11202FDE4FBFAAFA07892
:1002890001EF08800103D8FD1202F70BBB00010A38
:08029900EB64084A70E780E203
:10024E0075A0FE7F207EA11202FDE4FBFAAF0374BF
:10025E0001A807088002C333D8FCF41202F70BBBC7
:0B026E0000010AEB64084A70E480DF26
:10021D0011213F065B4F666D7D077F6F777C395EE1
:10022D0079710011105B3F067F3F7F5B5B00000023
:10023D000000000000000808064F0666406D5B3F99
:0B030800EF1FAC0670011E4C70F622C7
:10014200E4FBFAEA7053EBB40800504D900155F805
:1001520028287302016D02017102017902017D02F8
:100162000185020189020191020195D2A28002C297
:10017200A2D2A3D2A48022D2A28002C2A2C2A3D2BD
:10018200A48016D2A28002C2A2D2A3C2A4800AD2A2
:10019200A28002C2A2C2A3C2A474082BF8E6F58010
:1001A2007F647E00120308E4F5800BBB00010AEBBA
:0501B20064084A708E94
:0101B7002225
:0503370012014280FBF1
:04034000E4F580223E
:070329001202C4E4FEFF22F2
:0B031300EF1FAC0670011E4C70F622BC
:1002E40020B10F7FE87E0312031320B103C2A022C2
:0302F400D2A02273
:07033000D2A01202E480FBE1
:1002A1003F065B4F666D7D077F6F80000000010098
:1002B1000200030004000500060007020001080017
:0302C1000802022E
:0B031E00EF1FAC0670011E4C70F622B1
:060003008B348A358936BA
:10000900E4F53CF53DC3E53D953BE53C953A4003B8
:100019000200B5E53D25E0FFE53C33AB34AA35A93F
:10002900368F82F5831201E5FFAEF0E5F07053EFEC
:10003900B40800504D900045F828287302005D026D
:10004900006102006902006D020075020079020078
:1000590081020085D2A28002C2A2D2A3D2A48022A8
:10006900D2A28002C2A2C2A3D2A48016D2A28002C6
:10007900C2A2D2A3C2A4800AD2A28002C2A2C2A3EF
:10008900C2A4AB37AA38A939853D82853C831201C0
:10009900B89002A193F5807F647E0012031EE4F5F7
:0C00A90080053DE53D7002053C02000EA4
:0100B5002228
:1002C4007532007533087537FF7538027539BC858A
:1002D400323A85333B7BFF7A0279AC12000380E625
:1000C200020329E493A3F8E493A34003F68001F228
:1000D20008DFF48029E493A3F85407240CC8C3333F
:1000E200C4540F4420C8834004F456800146F6DF0E
:1000F200E4800B010204081020408090021DE47E7F
:10010200019360BCA3FF543F30E509541FFEE49302
:10011200A360010ECF54C025E060A840B8E493A3C9
:10012200FAE493A3F8E493A3C8C582C8CAC583CAF4
:10013200F0A3C8C582C8CAC583CADFE9DEE780BEAC
:01024D0000B0
:1001B800BB010CE58229F582E5833AF583E02250FC
:1001C80006E92582F8E622BBFE06E92582F8E22246
:0D01D800E58229F582E5833AF583E4932260
:1001E500BB0110E58229F582E5833AF583E0F5F058
:1001F500A3E0225009E92582F886F008E622BBFE35
:100205000AE92582F8E2F5F008E222E5832AF5837A
:08021500E993F5F0A3E993223F
:00000001FF
