:03000000020003F8
:0C000300787FE4F6D8FD75814302004AC6
:06037A00F5A07F507EC3D8
:0B038000EF1FAC0670011E4C70F6224F
:0403C20075A0FF2201
:1003180075A05F7F207EA1120380E4FBFAAFA0786E
:1003280001EF08800103D8FD12037A0BBB00010A14
:08033800EB64084A70E780E263
:1002ED0075A0FE7F207EA1120380E4FBFAAF03749C
:1002FD0001A807088002C333D8FCF412037A0BBBA4
:0B030D0000010AEB64084A70E480DF86
:10028D0011213F065B4F666D7D077F6F777C395E71
:10029D0079710011105B3F067F3F7F5B5B000000B3
:1002AD000000000000000808064F0666406D5B3F29
:0B039900EF1FAC0670011E4C70F62236
:10008F00E4FBFAEA7053EBB40800504D9000A2F86D
:10009F002828730200BA0200BE0200C60200CA027C
:1000AF0000D20200D60200DE0200E2D2A28002C21B
:1000BF00A2D2A3D2A48022D2A28002C2A2C2A3D271
:1000CF00A48016D2A28002C2A2D2A3C2A4800AD256
:1000DF00A28002C2A2C2A3C2A474082BF8E6F580C4
:1000EF007F647E00120399E4F5800BBB00010AEBDD
:0500FF0064084A708E48
:0101040022D8
:0503BD0012008F80FB1F
:0403C600E4F58022B8
:0703AF001202BEE4FEFF2272
:0B03A400EF1FAC0670011E4C70F6222B
:1003550020B10F7FE87E031203A420B103C2A022BF
:03036500D2A02201
:0703B600D2A012035580FBE9
:100340003F065B4F666D7D077F6F800007020001EF
:05035000080008020294
:0703680093F5807F647E0025
:0B036F00EF1FAC0670011E4C70F62260
:10023900EE7050EFB40800504A900249F82828732C
:1002490002026102026502026C0202700202770276
:10025900027B020282020286D2A28002C2A2D2A339
:10026900D2A422D2A28002C2A2C2A3D2A422D2A222
:100279008002C2A2D2A3C2A422D2A28002C2A2C276
:04028900A3C2A42246
:0E038B0012023990034AE4120368E4F580225E
:0601DE008B368A378938D8
:1001E400AF3FAE3E12038BE4F540F541C3E54195C4
:1001F4003DE540953C503DE54125E0FFE54033AB0E
:1002040036AA37A9388F82F5831201A6FFAEF01201
:100214000239AB39AA3AA93B85438285428312014C
:1002240079900340120368E4F5800541E54170BC10
:04023400054080B849
:0102380022A3
:10010500E4F53675900FE590640F60677FE87E0330
:1001150012036FE590640F605A75900FAF90EF244E
:10012500F5601224FE601614601B2407701DE4F5AB
:1001350042F5438016754200754301800E754200F5
:1001450075430280067542007543037590F0AF90C4
:10015500EF2490601324C0600B24E0600324F02298
:100165007404800674088002740C2543F543E43555
:0301750042F5420E
:010178002264
:1002BE00753200753301854234854335120105755B
:1002CE0039FF753A03753B4D85323C85333D85428A
:0F02DE003E85433F7BFF7A03794B1201DE80DDC3
:10000F000203AFE493A3F8E493A34003F68001F255
:10001F0008DFF48029E493A3F85407240CC8C333F2
:10002F00C4540F4420C8834004F456800146F6DFC1
:10003F00E4800B010204081020408090028DE47EC2
:10004F00019360BCA3FF543F30E509541FFEE493B6
:10005F00A360010ECF54C025E060A840B8E493A37D
:10006F00FAE493A3F8E493A3C8C582C8CAC583CAA8
:10007F00F0A3C8C582C8CAC583CADFE9DEE780BE60
:0102BD000040
:10017900BB010CE58229F582E5833AF583E022503B
:1001890006E92582F8E622BBFE06E92582F8E22285
:0D019900E58229F582E5833AF583E493229F
:1001A600BB0110E58229F582E5833AF583E0F5F097
:1001B600A3E0225009E92582F886F008E622BBFE74
:1001C6000AE92582F8E2F5F008E222E5832AF583BA
:0801D600E993F5F0A3E993227F
:00000001FF
