:03000000020003F8
:0C000300787FE4F6D8FD75814102004AC8
:06031100F5A07F507EC341
:0B031700EF1FAC0670011E4C70F622B8
:0403590075A0FF226A
:1002A10075A05F7F207EA1120317E4FBFAAFA0784F
:1002B10001EF08800103D8FD1203110BBB00010AF5
:0802C100EB64084A70E780E2DB
:1002760075A0FE7F207EA1120317E4FBFAAF03747C
:1002860001A807088002C333D8FCF41203110BBB84
:0B02960000010AEB64084A70E480DFFE
:1002190011213F065B4F666D7D077F6F777C395EE5
:1002290079710011105B3F067F3F7F5B5B00000027
:100239000000000000000808064F0666406D5B3F9D
:0B033000EF1FAC0670011E4C70F6229F
:10008F00E4FBFAEA7053EBB40800504D9000A2F86D
:10009F002828730200BA0200BE0200C60200CA027C
:1000AF0000D20200D60200DE0200E2D2A28002C21B
:1000BF00A2D2A3D2A48022D2A28002C2A2C2A3D271
:1000CF00A48016D2A28002C2A2D2A3C2A4800AD256
:1000DF00A28002C2A2C2A3C2A474082BF8E6F580C4
:1000EF007F647E00120330E4F5800BBB00010AEB46
:0500FF0064084A708E48
:0101040022D8
:0503540012008F80FB88
:04035D00E4F5802221
:07034600120361E4FEFF2237
:0B033B00EF1FAC0670011E4C70F62294
:1002EC0020B10F7FE87E0312033B20B103C2A02292
:0302FC00D2A0226B
:07034D00D2A01202EC80FBBC
:1002C9003F065B4F666D7D077F6F80000000010070
:1002D90002000300040005000600070200010800EF
:0302E90008020206
:0702FF0093F5807F647E008F
:0B030600EF1FAC0670011E4C70F622C9
:1001C500EE7050EFB40800504A9001D5F828287316
:1001D5000201ED0201F10201F80201FC0202030233
:1001E500020702020E020212D2A28002C2A2D2A30A
:1001F500D2A422D2A28002C2A2C2A3D2A422D2A297
:100205008002C2A2D2A3C2A422D2A28002C2A2C2EA
:04021500A3C2A422BA
:0E0322001201C59002D3E41202FFE4F580221E
:06016A008B368A3789384C
:10017000AF3FAE3E120322E4F540F541C3E54195A1
:100180003DE540953C503DE54125E0FFE54033AB82
:1001900036AA37A9388F82F583120132FFAEF012EA
:1001A00001C5AB39AA3AA93B85418285408312013A
:1001B000059002C91202FFE4F5800541E54170BCDB
:0401C000054080B8BE
:0101C4002218
:10024A007532007533087534007535077539FF75D1
:10025A003A02753BE485323C85333D85343E85352B
:0C026A003F7BFF7A0279D412016A80E029
:0303610002024A4B
:10000F00020346E493A3F8E493A34003F68001F2BE
:10001F0008DFF48029E493A3F85407240CC8C333F2
:10002F00C4540F4420C8834004F456800146F6DFC1
:10003F00E4800B0102040810204080900219E47E36
:10004F00019360BCA3FF543F30E509541FFEE493B6
:10005F00A360010ECF54C025E060A840B8E493A37D
:10006F00FAE493A3F8E493A3C8C582C8CAC583CAA8
:10007F00F0A3C8C582C8CAC583CADFE9DEE780BE60
:0102490000B4
:10010500BB010CE58229F582E5833AF583E02250AF
:1001150006E92582F8E622BBFE06E92582F8E222F9
:0D012500E58229F582E5833AF583E4932213
:10013200BB0110E58229F582E5833AF583E0F5F00B
:10014200A3E0225009E92582F886F008E622BBFEE8
:100152000AE92582F8E2F5F008E222E5832AF5832E
:08016200E993F5F0A3E99322F3
:00000001FF
